{
  "contractName": "BlindAuction",
  "abi": [
    {
      "constant": true,
      "inputs": [
        {
          "name": "",
          "type": "address"
        },
        {
          "name": "",
          "type": "uint256"
        }
      ],
      "name": "bids",
      "outputs": [
        {
          "name": "blindedBid",
          "type": "bytes32"
        },
        {
          "name": "deposit",
          "type": "uint256"
        }
      ],
      "payable": false,
      "stateMutability": "view",
      "type": "function"
    },
    {
      "constant": true,
      "inputs": [],
      "name": "ended",
      "outputs": [
        {
          "name": "",
          "type": "bool"
        }
      ],
      "payable": false,
      "stateMutability": "view",
      "type": "function"
    },
    {
      "constant": true,
      "inputs": [],
      "name": "beneficiary",
      "outputs": [
        {
          "name": "",
          "type": "address"
        }
      ],
      "payable": false,
      "stateMutability": "view",
      "type": "function"
    },
    {
      "constant": true,
      "inputs": [],
      "name": "biddingEnd",
      "outputs": [
        {
          "name": "",
          "type": "uint256"
        }
      ],
      "payable": false,
      "stateMutability": "view",
      "type": "function"
    },
    {
      "constant": true,
      "inputs": [],
      "name": "highestBidder",
      "outputs": [
        {
          "name": "",
          "type": "address"
        }
      ],
      "payable": false,
      "stateMutability": "view",
      "type": "function"
    },
    {
      "constant": true,
      "inputs": [],
      "name": "revealEnd",
      "outputs": [
        {
          "name": "",
          "type": "uint256"
        }
      ],
      "payable": false,
      "stateMutability": "view",
      "type": "function"
    },
    {
      "constant": true,
      "inputs": [],
      "name": "highestBid",
      "outputs": [
        {
          "name": "",
          "type": "uint256"
        }
      ],
      "payable": false,
      "stateMutability": "view",
      "type": "function"
    },
    {
      "inputs": [
        {
          "name": "_biddingTime",
          "type": "uint256"
        },
        {
          "name": "_revealTime",
          "type": "uint256"
        },
        {
          "name": "_beneficiary",
          "type": "address"
        }
      ],
      "payable": false,
      "stateMutability": "nonpayable",
      "type": "constructor"
    },
    {
      "anonymous": false,
      "inputs": [
        {
          "indexed": false,
          "name": "winner",
          "type": "address"
        },
        {
          "indexed": false,
          "name": "highestBid",
          "type": "uint256"
        }
      ],
      "name": "AuctionEnded",
      "type": "event"
    },
    {
      "constant": false,
      "inputs": [
        {
          "name": "_blindedBid",
          "type": "bytes32"
        }
      ],
      "name": "bid",
      "outputs": [],
      "payable": true,
      "stateMutability": "payable",
      "type": "function"
    },
    {
      "constant": false,
      "inputs": [
        {
          "name": "_values",
          "type": "uint256[]"
        },
        {
          "name": "_fake",
          "type": "bool[]"
        },
        {
          "name": "_secret",
          "type": "bytes32[]"
        }
      ],
      "name": "reveal",
      "outputs": [],
      "payable": false,
      "stateMutability": "nonpayable",
      "type": "function"
    },
    {
      "constant": false,
      "inputs": [],
      "name": "withdraw",
      "outputs": [],
      "payable": false,
      "stateMutability": "nonpayable",
      "type": "function"
    },
    {
      "constant": false,
      "inputs": [],
      "name": "auctionEnd",
      "outputs": [],
      "payable": false,
      "stateMutability": "nonpayable",
      "type": "function"
    }
  ],
  "bytecode": "0x608060405234801561001057600080fd5b50604051606080610c2b833981018060405281019080805190602001909291908051906020019092919080519060200190929190505050806000806101000a81548173ffffffffffffffffffffffffffffffffffffffff021916908373ffffffffffffffffffffffffffffffffffffffff1602179055508242016001819055508160015401600281905550505050610b7e806100ad6000396000f3006080604052600436106100af576000357c0100000000000000000000000000000000000000000000000000000000900463ffffffff16806301495c1c146100b457806312fa6feb146101245780632a24f46c1461015357806338af3eed1461016a5780633ccfd60b146101c1578063423b217f146101d8578063900f080a1461020357806391f90157146102ef578063957bb1e014610346578063a6e664771461036a578063d57bde7914610395575b600080fd5b3480156100c057600080fd5b506100ff600480360381019080803573ffffffffffffffffffffffffffffffffffffffff169060200190929190803590602001909291905050506103c0565b6040518083600019166000191681526020018281526020019250505060405180910390f35b34801561013057600080fd5b50610139610400565b604051808215151515815260200191505060405180910390f35b34801561015f57600080fd5b50610168610413565b005b34801561017657600080fd5b5061017f610557565b604051808273ffffffffffffffffffffffffffffffffffffffff1673ffffffffffffffffffffffffffffffffffffffff16815260200191505060405180910390f35b3480156101cd57600080fd5b506101d661057c565b005b3480156101e457600080fd5b506101ed610659565b6040518082815260200191505060405180910390f35b34801561020f57600080fd5b506102ed60048036038101908080359060200190820180359060200190808060200260200160405190810160405280939291908181526020018383602002808284378201915050505050509192919290803590602001908201803590602001908080602002602001604051908101604052809392919081815260200183836020028082843782019150505050505091929192908035906020019082018035906020019080806020026020016040519081016040528093929190818152602001838360200280828437820191505050505050919291929050505061065f565b005b3480156102fb57600080fd5b50610304610938565b604051808273ffffffffffffffffffffffffffffffffffffffff1673ffffffffffffffffffffffffffffffffffffffff16815260200191505060405180910390f35b610368600480360381019080803560001916906020019092919050505061095e565b005b34801561037657600080fd5b5061037f610a13565b6040518082815260200191505060405180910390f35b3480156103a157600080fd5b506103aa610a19565b6040518082815260200191505060405180910390f35b6004602052816000526040600020818154811015156103db57fe5b9060005260206000209060020201600091509150508060000154908060010154905082565b600360009054906101000a900460ff1681565b600254804211151561042457600080fd5b600360009054906101000a900460ff1615151561044057600080fd5b7fdaec4582d5d9595688c8c98545fdd1c696d41c6aeaeb636737e84ed2f5c00eda600560009054906101000a900473ffffffffffffffffffffffffffffffffffffffff16600654604051808373ffffffffffffffffffffffffffffffffffffffff1673ffffffffffffffffffffffffffffffffffffffff1681526020018281526020019250505060405180910390a16001600360006101000a81548160ff0219169083151502179055506000809054906101000a900473ffffffffffffffffffffffffffffffffffffffff1673ffffffffffffffffffffffffffffffffffffffff166108fc6006549081150290604051600060405180830381858888f19350505050158015610553573d6000803e3d6000fd5b5050565b6000809054906101000a900473ffffffffffffffffffffffffffffffffffffffff1681565b6000600760003373ffffffffffffffffffffffffffffffffffffffff1673ffffffffffffffffffffffffffffffffffffffff1681526020019081526020016000205490506000811115610656576000600760003373ffffffffffffffffffffffffffffffffffffffff1673ffffffffffffffffffffffffffffffffffffffff168152602001908152602001600020819055503373ffffffffffffffffffffffffffffffffffffffff166108fc829081150290604051600060405180830381858888f19350505050158015610654573d6000803e3d6000fd5b505b50565b60015481565b6000806000806000806000600154804211151561067b57600080fd5b600254804210151561068c57600080fd5b600460003373ffffffffffffffffffffffffffffffffffffffff1673ffffffffffffffffffffffffffffffffffffffff168152602001908152602001600020805490509850888c511415156106e057600080fd5b888b511415156106ef57600080fd5b888a511415156106fe57600080fd5b600096505b888710156108e357600460003373ffffffffffffffffffffffffffffffffffffffff1673ffffffffffffffffffffffffffffffffffffffff1681526020019081526020016000208781548110151561075757fe5b906000526020600020906002020195508b8781518110151561077557fe5b906020019060200201518b8881518110151561078d57fe5b906020019060200201518b898151811015156107a557fe5b906020019060200201519450945094508484846040516020018084815260200183151515157f0100000000000000000000000000000000000000000000000000000000000000028152600101826000191660001916815260200193505050506040516020818303038152906040526040518082805190602001908083835b6020831015156108485780518252602082019150602081019050602083039250610823565b6001836020036101000a03801982511681845116808217855250505050505090500191505060405180910390206000191686600001546000191614151561088e576108d6565b856001015488019750831580156108a9575084866001015410155b156108c4576108b83386610a1f565b156108c35784880397505b5b60006001028660000181600019169055505b8680600101975050610703565b3373ffffffffffffffffffffffffffffffffffffffff166108fc899081150290604051600060405180830381858888f19350505050158015610929573d6000803e3d6000fd5b50505050505050505050505050565b600560009054906101000a900473ffffffffffffffffffffffffffffffffffffffff1681565b600154804210151561096f57600080fd5b600460003373ffffffffffffffffffffffffffffffffffffffff1673ffffffffffffffffffffffffffffffffffffffff168152602001908152602001600020604080519081016040528084600019168152602001348152509080600181540180825580915050906001820390600052602060002090600202016000909192909190915060008201518160000190600019169055602082015181600101555050505050565b60025481565b60065481565b600060065482111515610a355760009050610b4c565b600073ffffffffffffffffffffffffffffffffffffffff16600560009054906101000a900473ffffffffffffffffffffffffffffffffffffffff1673ffffffffffffffffffffffffffffffffffffffff16141515610aff5760065460076000600560009054906101000a900473ffffffffffffffffffffffffffffffffffffffff1673ffffffffffffffffffffffffffffffffffffffff1673ffffffffffffffffffffffffffffffffffffffff168152602001908152602001600020600082825401925050819055505b8160068190555082600560006101000a81548173ffffffffffffffffffffffffffffffffffffffff021916908373ffffffffffffffffffffffffffffffffffffffff160217905550600190505b929150505600a165627a7a72305820602e0faeb66436a8168faa10d3709cc4945de4d948714a12e566fb8ccd7018ad0029",
  "source": "pragma solidity ^0.4.24;\n\ncontract BlindAuction {\n\n    // 竞拍标地及出价的Bid对象\n    struct Bid {\n        bytes32 blindedBid;\n        uint256 deposit;\n    }\n\n    // 竞拍收益者\n    address public beneficiary;\n    // 竞拍时间\n    uint256 public biddingEnd;\n    // 揭秘时间\n    uint256 public revealEnd;\n    // 竞拍结束否\n    bool public ended;\n    // 封装用户所有竞拍数据\n    mapping(address => Bid[]) public bids;\n\n    // 最高出价人地址\n    address public highestBidder;\n    // 最高出价标地\n    uint256 public highestBid;\n    // 取回池\n    mapping(address => uint256) pendingReturns;\n\n    event AuctionEnded(address winner, uint256 highestBid);\n\n    modifier onlyBefore(uint256 _time){\n        require(now < _time);\n        _;\n    }\n\n    modifier onlyAfter(uint256 _time){\n        require(now > _time);\n        _;\n    }\n\n    // 构造函数 竞拍时间|揭秘时间|收益人\n    constructor(\n        uint256 _biddingTime,\n        uint256 _revealTime,\n        address _beneficiary\n    ) public {\n        beneficiary = _beneficiary;\n        biddingEnd = now + _biddingTime;\n        revealEnd = biddingEnd + _revealTime;\n    }\n\n    // 竞拍\n    function bid(bytes32 _blindedBid) public payable onlyBefore(biddingEnd)\n    {\n        bids[msg.sender].push(Bid({\n            blindedBid : _blindedBid,\n            deposit : msg.value\n            }));\n    }\n\n    // 揭秘出价\n    // 已竞拍[出价ether]数组\n    // 已竞拍[true|false出价]数组\n    // 已竞拍[出价secret]数组\n    function reveal(\n        uint256[] _values,\n        bool[] _fake,\n        bytes32[] _secret\n    )\n    public\n    onlyAfter(biddingEnd)\n    onlyBefore(revealEnd)\n    {\n        // 竞拍次数\n        uint256 length = bids[msg.sender].length;\n\n        require(_values.length == length);\n        require(_fake.length == length);\n        require(_secret.length == length);\n\n        // 退还\n        uint256 refund;\n        // 循环已出价数组\n        for (uint i = 0; i < length; i++) {\n            // 竞拍标地及出价的Bid对象\n            Bid storage _bid = bids[msg.sender][i];\n            (uint256 value, bool fake, bytes32 secret) = (_values[i], _fake[i], _secret[i]);\n            if (_bid.blindedBid != keccak256(abi.encodePacked(value, fake, secret))) {\n                continue;\n            }\n            // 退还款总余额\n            refund += _bid.deposit;\n            // 只有在出价披露阶段被正确披露，已发送的以太币才会被退还\n            if (!fake && _bid.deposit >= value) {\n                // 如果与出价一起发送的以太币至少为 “value” 且 “fake” 不为真，则出价有效。\n                if (placeBid(msg.sender, value)) {\n                    refund -= value;\n                }\n            }\n            _bid.blindedBid = bytes32(0);\n        }\n        msg.sender.transfer(refund);\n    }\n\n    // 出价\n    function placeBid(address bidder, uint256 value) internal returns (bool success)\n    {\n        if (value <= highestBid) {\n            return false;\n        }\n        if (highestBidder != address(0)) {\n            pendingReturns[highestBidder] += highestBid;\n        }\n        highestBid = value;\n        highestBidder = bidder;\n        return true;\n    }\n\n    // 取回出价\n    function withdraw() public {\n        uint256 amount = pendingReturns[msg.sender];\n        if (amount > 0) {\n            pendingReturns[msg.sender] = 0;\n            msg.sender.transfer(amount);\n        }\n    }\n\n    // 结束竞拍\n    function auctionEnd() public onlyAfter(revealEnd)\n    {\n        require(!ended);\n        emit AuctionEnded(highestBidder, highestBid);\n        ended = true;\n        beneficiary.transfer(highestBid);\n    }\n}",
  "sourcePath": "/Users/yves/nodeworkspace/truffle_learn_09/contracts/BlindAuction.sol",
  "compiler": {
    "name": "solc",
    "version": "0.4.24+commit.e67f0147.Emscripten.clang"
  },
  "schemaVersion": "2.0.1",
  "updatedAt": "2018-10-16T03:39:49.688Z"
}